{
  "contractName": "Pizza",
  "abi": [
    {
      "inputs": [
        {
          "internalType": "address",
          "name": "_owner",
          "type": "address"
        }
      ],
      "stateMutability": "nonpayable",
      "type": "constructor"
    },
    {
      "inputs": [],
      "name": "owner",
      "outputs": [
        {
          "internalType": "address",
          "name": "",
          "type": "address"
        }
      ],
      "stateMutability": "view",
      "type": "function",
      "constant": true
    },
    {
      "inputs": [
        {
          "internalType": "uint256",
          "name": "amount",
          "type": "uint256"
        }
      ],
      "name": "buyPizza",
      "outputs": [],
      "stateMutability": "payable",
      "type": "function",
      "payable": true
    },
    {
      "inputs": [],
      "name": "getOwnerBalance",
      "outputs": [
        {
          "internalType": "uint256",
          "name": "",
          "type": "uint256"
        }
      ],
      "stateMutability": "view",
      "type": "function",
      "constant": true
    }
  ],
  "bytecode": "0x608060405234801561001057600080fd5b506040516103a23803806103a28339818101604052810190610032919061008d565b806000806101000a81548173ffffffffffffffffffffffffffffffffffffffff021916908373ffffffffffffffffffffffffffffffffffffffff160217905550506100ff565b600081519050610087816100e8565b92915050565b60006020828403121561009f57600080fd5b60006100ad84828501610078565b91505092915050565b60006100c1826100c8565b9050919050565b600073ffffffffffffffffffffffffffffffffffffffff82169050919050565b6100f1816100b6565b81146100fc57600080fd5b50565b6102948061010e6000396000f3fe6080604052600436106100345760003560e01c80633125e46e14610039578063590791f2146100555780638da5cb5b14610080575b600080fd5b610053600480360381019061004e919061018e565b6100ab565b005b34801561006157600080fd5b5061006a610115565b60405161007791906101f0565b60405180910390f35b34801561008c57600080fd5b50610095610155565b6040516100a291906101d5565b60405180910390f35b60008054906101000a900473ffffffffffffffffffffffffffffffffffffffff1673ffffffffffffffffffffffffffffffffffffffff166108fc829081150290604051600060405180830381858888f19350505050158015610111573d6000803e3d6000fd5b5050565b60008060009054906101000a900473ffffffffffffffffffffffffffffffffffffffff1673ffffffffffffffffffffffffffffffffffffffff1631905090565b60008054906101000a900473ffffffffffffffffffffffffffffffffffffffff1681565b60008135905061018881610247565b92915050565b6000602082840312156101a057600080fd5b60006101ae84828501610179565b91505092915050565b6101c08161020b565b82525050565b6101cf8161023d565b82525050565b60006020820190506101ea60008301846101b7565b92915050565b600060208201905061020560008301846101c6565b92915050565b60006102168261021d565b9050919050565b600073ffffffffffffffffffffffffffffffffffffffff82169050919050565b6000819050919050565b6102508161023d565b811461025b57600080fd5b5056fea264697066735822122061f19b29ccc77976379f59c68dfb2962dcf0e1adc925f7b76fa09ec64ffe98a364736f6c63430008000033",
  "immutableReferences": {},
  "source": "// SPDX-License-Identifier: MIT\r\npragma solidity ^0.8.0;\r\n\r\ncontract Pizza {\r\n    address public owner;\r\n\r\n    constructor(address _owner) {\r\n        owner = _owner;\r\n    }\r\n\r\n    function buyPizza(uint amount) public payable {\r\n        payable(owner).transfer(amount);\r\n    }\r\n    function getOwnerBalance() public view returns(uint){\r\n      return owner.balance;\r\n    }\r\n}",
  "sourcePath": "F:\\PizzaMernStack\\truffle\\contracts\\Pizza.sol",
  "compiler": {
    "name": "solc",
    "version": "0.8.0+commit.c7dfd78e.Emscripten.clang"
  },
  "schemaVersion": "3.4.16",
  "updatedAt": "2024-07-01T05:59:55.523Z",
  "networkType": "ethereum",
  "devdoc": {
    "kind": "dev",
    "methods": {},
    "version": 1
  },
  "userdoc": {
    "kind": "user",
    "methods": {},
    "version": 1
  }
}